:020000040000fa
:080000000002040000000000f2
:020000040000fa
:04000800c80200002a
:020000040000fa
:04000c00c802000026
:020000040000fa
:04001000c802000022
:020000040000fa
:04001400c80200001e
:020000040000fa
:04001800c80200001a
:020000040000fa
:04001c00c802000016
:020000040000fa
:04002000c802000012
:020000040000fa
:04002400c80200000e
:020000040000fa
:04002800c80200000a
:020000040000fa
:04002c00c802000006
:020000040000fa
:04003000c802000002
:020000040000fa
:04003400c8020000fe
:020000040000fa
:04003800c8020000fa
:020000040000fa
:04003c00c8020000f6
:020000040000fa
:04004000c8020000f2
:020000040000fa
:04004400c8020000ee
:020000040000fa
:04004800c8020000ea
:020000040000fa
:04004c00c8020000e6
:020000040000fa
:04005000c8020000e2
:020000040000fa
:04005400c8020000de
:020000040000fa
:04005800c8020000da
:020000040000fa
:04005c00c8020000d6
:020000040000fa
:04006000c8020000d2
:020000040000fa
:04006400c8020000ce
:020000040000fa
:04006800c8020000ca
:020000040000fa
:04006c00c8020000c6
:020000040000fa
:04007000c8020000c2
:020000040000fa
:04007400c8020000be
:020000040000fa
:04007800c8020000ba
:020000040000fa
:04007c00c8020000b6
:020000040000fa
:04008000c8020000b2
:020000040000fa
:04008400c8020000ae
:020000040000fa
:04008800c8020000aa
:020000040000fa
:04008c00c8020000a6
:020000040000fa
:04009000c8020000a2
:020000040000fa
:04009400c80200009e
:020000040000fa
:04009800c80200009a
:020000040000fa
:04009c00c802000096
:020000040000fa
:0400a000c802000092
:020000040000fa
:0400a400c80200008e
:020000040000fa
:0400a800c80200008a
:020000040000fa
:0400ac00c802000086
:020000040000fa
:0400b000c802000082
:020000040000fa
:0400b400c80200007e
:020000040000fa
:0400b800c80200007a
:020000040000fa
:0400bc00c802000076
:020000040000fa
:0400c000c802000072
:020000040000fa
:0400c400c80200006e
:020000040000fa
:0400c800c80200006a
:020000040000fa
:0400cc00c802000066
:020000040000fa
:0400d000c802000062
:020000040000fa
:0400d400c80200005e
:020000040000fa
:0400d800c80200005a
:020000040000fa
:0400dc00c802000056
:020000040000fa
:0400e000c802000052
:020000040000fa
:0400e400c80200004e
:020000040000fa
:0400e800c80200004a
:020000040000fa
:0400ec00c802000046
:020000040000fa
:0400f000c802000042
:020000040000fa
:0400f400c80200003e
:020000040000fa
:0400f800c80200003a
:020000040000fa
:0400fc00c802000036
:020000040000fa
:04010000c802000031
:020000040000fa
:04010400c80200002d
:020000040000fa
:04010800c802000029
:020000040000fa
:04010c00c802000025
:020000040000fa
:04011000c802000021
:020000040000fa
:04011400c80200001d
:020000040000fa
:04011800c802000019
:020000040000fa
:04011c00c802000015
:020000040000fa
:04012000c802000011
:020000040000fa
:04012400c80200000d
:020000040000fa
:04012800c802000009
:020000040000fa
:04012c00c802000005
:020000040000fa
:04013000c802000001
:020000040000fa
:04013400c8020000fd
:020000040000fa
:04013800c8020000f9
:020000040000fa
:04013c00c8020000f5
:020000040000fa
:04014000c8020000f1
:020000040000fa
:04014400c8020000ed
:020000040000fa
:04014800c8020000e9
:020000040000fa
:04014c00c8020000e5
:020000040000fa
:04015000c8020000e1
:020000040000fa
:04015400c8020000dd
:020000040000fa
:04015800c8020000d9
:020000040000fa
:04015c00c8020000d5
:020000040000fa
:04016000c8020000d1
:020000040000fa
:04016400c8020000cd
:020000040000fa
:04020800c802000028
:020000040000fa
:04020c00c802000024
:020000040000fa
:04021000c802000020
:020000040000fa
:04021400c80200001c
:020000040000fa
:04021800c802000018
:020000040000fa
:04021c00c802000014
:020000040000fa
:04022000c802000010
:020000040000fa
:04022400c80200000c
:020000040000fa
:04022800c802000008
:020000040000fa
:04022c00c802000004
:020000040000fa
:04023000c802000000
:020000040000fa
:04023400c8020000fc
:020000040000fa
:04023800c8020000f8
:020000040000fa
:04023c00c8020000f4
:020000040000fa
:04024000c8020000f0
:020000040000fa
:04024400c8020000ec
:020000040000fa
:04024800c8020000e8
:020000040000fa
:04024c00c8020000e4
:020000040000fa
:04025000c8020000e0
:020000040000fa
:04025400c8020000dc
:020000040000fa
:04025800c8020000d8
:020000040000fa
:04025c00c8020000d4
:020000040000fa
:04026000c8020000d0
:020000040000fa
:04026400c8020000cc
:020000040000fa
:04026800c8020000c8
:020000040000fa
:04026c00c8020000c4
:020000040000fa
:04027000c8020000c0
:020000040000fa
:04027400c8020000bc
:020000040000fa
:04027800c8020000b8
:020000040000fa
:04027c00c8020000b4
:020000040000fa
:04028000c8020000b0
:020000040000fa
:04028400c8020000ac
:020000040000fa
:04028800c8020000a8
:020000040000fa
:04028c00c8020000a4
:020000040000fa
:04029000c8020000a0
:020000040000fa
:04029400c80200009c
:020000040000fa
:04029800c802000098
:020000040000fa
:04029c00c802000094
:020000040000fa
:0402a000c802000090
:020000040000fa
:0402a400c80200008c
:020000040000fa
:0402a800c802000088
:020000040000fa
:0402ac00c802000084
:020000040000fa
:0402b000c802000080
:020000040000fa
:0402b400c80200007c
:020000040000fa
:0402b800c802000078
:020000040000fa
:0402bc00c802000074
:020000040000fa
:0402c000c802000070
:020000040000fa
:0402c400c80200006c
:020000040000fa
:0402c800c802000068
:020000040000fa
:0402cc00c802000064
:020000040000fa
:0402d000c802000060
:020000040000fa
:0402d400c80200005c
:020000040000fa
:0402d800c802000058
:020000040000fa
:0402dc00c802000054
:020000040000fa
:0402e000c802000050
:020000040000fa
:0402e400c80200004c
:020000040000fa
:0402e800c802000048
:020000040000fa
:0402ec00c802000044
:020000040000fa
:0402f000c802000040
:020000040000fa
:0402f400c80200003c
:020000040000fa
:0402f800c802000038
:020000040000fa
:0402fc00c802000034
:020000040000fa
:04030000c80200002f
:020000040000fa
:04030400c80200002b
:020000040000fa
:04030800c802000027
:020000040000fa
:04030c00c802000023
:020000040000fa
:04031000c80200001f
:020000040000fa
:04031400c80200001b
:020000040000fa
:04031800c802000017
:020000040000fa
:04031c00c802000013
:020000040000fa
:04032000c80200000f
:020000040000fa
:04032400c80200000b
:020000040000fa
:04032800c802000007
:020000040000fa
:04032c00c802000003
:020000040000fa
:04033000c8020000ff
:020000040000fa
:04033400c8020000fb
:020000040000fa
:04033800c8020000f7
:020000040000fa
:04033c00c8020000f3
:020000040000fa
:04034000c8020000ef
:020000040000fa
:04034400c8020000eb
:020000040000fa
:04034800c8020000e7
:020000040000fa
:04034c00c8020000e3
:020000040000fa
:04035000c8020000df
:020000040000fa
:04035400c8020000db
:020000040000fa
:04035800c8020000d7
:020000040000fa
:04035c00c8020000d3
:020000040000fa
:04036000c8020000cf
:020000040000fa
:04036400c8020000cb
:020000040000fa
:100400004f8220000e7f22000e01880000000000b5
:10041000000020000000e000020032000001200087
:1004200020028800140007005b0007000000e000c5
:1004300003003a00809c20000100200002003700e9
:100440000000200001002000810f70000100320038
:1004500014000700000020000000e000020032004d
:10046000000002000000000030090200000000004f
:100470000040da000000fe004440a9000000200017
:100480000000e0000300320000002000a00188000e
:100490004440a800000006008a1f78008b1f7800e7
:1004a0000000060091018800800478000000eb0045
:1004b0001a003700e284440032a0b4009905ba0063
:1004c000e284440032a0b4009906ba00e2844400f9
:1004d00032a0b4000006eb00476fde00fd07b2005b
:1004e000636ce10003003a00ebff07000000eb0043
:1004f0000a003700606ce10004003a00005deb0088
:100500008b05e900fdff3e00040037006168e10053
:10051000010032000086eb000b00070019c7ba008b
:100520001905ba000e04e00003003a000a00e000da
:10053000e0ff3a0000000600fe07b2009e018800be
:100540008a047800f5ff3700395dba008b05e900b1
:100550000c003200295dba008b05e900080032006a
:100560000c00e00003003a00e284440032a0b40032
:10057000f5ff370019ddba008b05e900faff3a00f4
:100580008904e800e184440032a0b40000000600c1
:100590000040da000000fe0000000500889fbe0059
:1005a0008a9fbe0030044200b0844a0030054b00f0
:1005b00090854b006000b1000898be000a90be0014
:1005c0000440e10005c8e10006d0e10007d8e100e1
:1005d00002003100680040001008e8004f05be002e
:1005e0004f04be0000000600889fbe008a9fbe0028
:1005f0003004be002005be000418540005985c00bd
:1006000006185d0007985d00110020000440e1001d
:1006100005c8e10006d0e10007d8e100010039007b
:100620008000eb00108810004f05be004f04be0094
:1006300000000600f4874700889fbe008a9fbe0026
:100640008c9fbe008e1f7800d0b79f00e1b79f003f
:10065000f2b79f0083bf9f000605be000404be00e2
:10066000cfae97000000eb00c0b79f00b0b79f006f
:10067000a0b79f0090b79f0080b79f00000678004a
:100680004fb09700000140000000e00006003d0070
:100690003c0007000f074700450007000f0040001f
:1006a000beff070005003700360007000f074700b0
:1006b0003f0007000f004000cbff07004fb7970037
:1006c0000e00e0000c0035005fb29700efb297001b
:1006d0007fb397008fbb970010002000010020001f
:1006e0006011b80000027200818272000203730080
:1006f000838373001c0007000c06e800010420003f
:10070000810f5600deff3a000e00e00005003d00bc
:100710000802be000a03be0000fe2f000f004000ca
:100720009eff07000d00e00005003a000fb29700a1
:100730009fb297002fb39700bfb397000a0007003e
:100740005fb09700efb097007fb197008fb9970027
:100750004f0778004f06be004f05be004f04be0095
:100760004f01b10000000600010007000000060074
:1007700094b79f00a5b79f00b6b79f00c7b79f006b
:10078000000006009fb097004f08de0002017000d5
:10079000a2b79f000fb097004f01de00818040009c
:1007a0008100710091b79f000efe2f00000006002f
:1007b000de0078004f09de000000400000007100fc
:1007c00080b79f006fa897004f01de008180400036
:1007d000010f71000e0007004f3ade0000004000dc
:1007e00004007000e0af9f0009000700040242000f
:1007f00085824a0006034b0087834b00dcff07001d
:100800000802be000a03be0000fe2f000000060022
:100810001fb29700afb297003fb39700cfb39700d6
:1008200000000600881f780018002000881f78004c
:1008300080ff07008f87e9004f0478000000060062
:10084000801feb007bff07008f87e9000000060098
:10085000889fbe008a9fbe00e00f5000e08f5800c6
:10086000e00f5900e08f59000c003d006044b800d3
:100870006055b8000000540081805c0002015d00fa
:1008800083815d00180020001500070008003d006e
:10089000180007000004eb00050037000004eb001f
:1008a0000f00070002003d001200070018002000a2
:1008b000dcff07000800e000060032006022b800fc
:1008c0006033b8000000520081805a0002015b00d2
:1008d00083815b004f05be004f04be000000060090
:1008e000e00f5200e08f5a00e00f5b00e08f5b00ea
:1008f000000006006044b8006055b80004025400cf
:1009000085825c0006035d0087835d0000000600b1
:10091000889fbe008a9fbe008c1f7800e00f5000a9
:10092000e08f5800e00f5900e08f59000d003d00a6
:100930006044b8006055b8000000540081805c003d
:1009400002015d0083815d001c0020000820e100a1
:1009500009a8e1000ab0e1000bb8e1000d003d007c
:10096000080037000006eb00e00f5200e08f5a004d
:10097000e00f5b00e08f5b0006003d006044b800c4
:100980006055b8000402540085825c0006035d00d7
:1009900087835d00aaff07000c00e000060032001c
:1009a0006022b8006033b8000000520081805a0015
:1009b00002015b0083815b004f0678004f05be009b
:1009c0004f04be0000000600889fbe008a9fbe0044
:1009d0008c1f78000006eb00e00f5000e08f5800fd
:1009e000e00f5900e08f590007003d006044b80057
:1009f0006055b8000000540081805c0002015d0079
:100a000083815d001c002000e00f5200e08f5a003f
:100a1000e00f5b00e08f5b0007003d006044b80022
:100a20006055b8000402540085825c0006035d0036
:100a300087835d000c00a2000c0007000c00e000a2
:100a4000060032006022b8006033b8000000520097
:100a500081805a0002015b0083815b004f067800b1
:100a60004f05be004f04be0000000600889fbe0078
:100a70008a9fbe008c9fbe000404b8000506b80023
:100a80008904460060854e000606b8000a05460047
:100a9000e0854e000706b8008b054600040eb8003e
:100aa000890446000a854e00e0854d00050eb80019
:100ab0000a0546008b854e00060eb8008b054600e1
:100ac0000416b8000a0546008b854e000516b800ce
:100ad0008b054600041eb8008b0546000800be00ca
:100ae0000a01be004f06be004f05be004f04be0007
:040af00000000600fc
:020000040000fa
:100af4000400fa0020822000104078000080fb00ef
:100b0400110020000008dd008040780006c8bf0006
:100b140000c06000004f780004c8bf008080fb0064
:100b240030822000104078000080fb00c308dd0004
:100b340080804000a28020000e00e8008100410077
:100b44001148780030822000904078009080200086
:100b54001040780080cf500009003a0080802000c7
:100b6400104078000080fb00110020000008dd0028
:100b74008040780007c8bf0000c060000100370053
:100b84000040eb008e80e800804878000e00e8000a
:100b9400104078009e4070000e80e80010407800fd
:100ba40000c070000080fb000080ea00601688002e
:100bb4000080fa00000006000200fa0020822000f3
:100bc400104078000004e0001a00320004c8bf009e
:100bd4008080fb0030822000104078000080fb0001
:100be400c308dd0000804000a18020000080400098
:100bf400104078008080fb002082200010407800a4
:100c04000080fb000000e9000088de00004078005e
:100c1400614f60001e407800e14f50000500320033
:100c240020822000104078008040e90020822000cb
:100c3400014878000080fa00000006000200fa0073
:100c44002082200010407800e64f50001a003e0039
:100c540004c8bf008080fb00308220001040780070
:100c64000080fb00c308dd0000804000a18020005c
:100c740000804000104078008080fb00208220002b
:100c8400104078000080fb000000e8000088de00cf
:100c940000407800614f60001e407800e14f500032
:100ca4000500320020822000104078008040e800d7
:100cb40020822000014878000080fa00000006002d
:100cc4000200fa0030822000104078000004e000a6
:100cd4002d0032003082200010407800004fe900df
:100ce40004c8bf008080fb001e80fb00c308dd0039
:100cf40000804000a1802000008040001040780067
:100d04008080fb0020822000104078000080fb00df
:100d14000088de0000407800e14060000e00e8003a
:100d2400014878000e00e80010407800e14f5000c0
:100d34000600320030822000104078008040e90034
:100d440030822000014878001300370004c8bf0037
:100d54008080fb001e80fb00c308dd000080400093
:100d6400a180200000804000104078000080fb003b
:100d74000080ea006016880080d42100e100200091
:100d84009901070004003700cc22ef0080d4210031
:100d9400e1002000940107000080fa000000060032
:100da4000200fa003082200010407800e64f500024
:100db4002d003e003082200010407800004fe800f3
:100dc40004c8bf008080fb001e80fb00c308dd0058
:100dd40000804000a1802000008040001040780086
:100de4008080fb0020822000104078000080fb00ff
:100df4000088de0000407800e14060000e00e8005a
:100e0400014878000e00e80010407800e14f5000df
:100e14000600320030822000104078008040e80054
:100e240030822000014878001300370004c8bf0056
:100e34008080fb001e80fb00c308dd0000804000b2
:100e4400a180200000804000104078000080fb005a
:100e54000080ea006016880080d42100e1002000b0
:100e64006101070004003700cc22ef0080d4210088
:100e7400e10020005c0107000080fa000000060089
:100e84000600fa0064014700004978006500470045
:100e94000148780064004700104078000080fb009f
:100ea400110020000008dd001116800081006000a0
:100eb40064004700104078000080fb000008de005a
:100ec400004f78008040eb000e00e80001487800f5
:100ed4008040eb000e80e800014878000e80e800b6
:100ee400104078000004e00025003a000e00e800fd
:100ef400104078009e40780080cf500020003600db
:100f040011c0b3000e80e800014878006500470076
:100f1400104078000080fb00e10f50000c0032000c
:100f2400e10f500003003c000000e0000600320026
:100f34000d003700e20f500007003200e30f5000ad
:100f440007003200080037003cff070006003700a6
:100f540093ff07000400370059ff07000200370021
:100f640015ff07000000000000ff2e000101200013
:100f74001d0107008040eb000e80e8000148780066
:100f84000080fa00000006000400fa00810c200032
:100f94000e80e8000108780070fe2f0060168800bb
:100fa4000e80e80010007800cf80de006109b900ef
:100fb40004522700850320006033b80081fe070037
:100fc400843e2000050020006033b80014fe0700b2
:100fd4000000be0004010700b0fd2f006016880069
:100fe4000e80e80010007800cf80de006109b900af
:100ff40004522700850320006033b80071fe070007
:10100400843e2000050020006033b80004fe070081
:101014000000be00f40007000040eb00004f780021
:101024002100370050fa2f00601688000e80e80077
:1010340010007800cf80de006109b9000452270057
:10104400850320006033b8005efe0700843e200064
:10105400050020006033b800f1fd07000000be0069
:10106400e1000700a0f52f00601688000e80e8005c
:1010740010007800cf80de006109b9000452270017
:10108400850320006033b8004efe0700843e200034
:10109400050020006033b800e1fd07000000be0039
:1010a400d10007001e4fe8001e407800e44f5000b6
:1010b400dcff3400d0fb2f00601688000e80e800af
:1010c40010007800cf80de006109b90004522700c7
:1010d400850320006033b8003afe0700843e2000f8
:1010e400050020006033b800cdfd07000000be00fd
:1010f400bd000700e0f72f00601688000e80e800ae
:1011040010007800cf80de006109b9000452270086
:10111400850320006033b8002afe0700843e2000c7
:10112400050020006033b800bdfd07000000be00cc
:10113400ad0007000080eb00601688000e80e80018
:1011440010007800cf80de006109b90004f62500a4
:10115400950a20006033b8001afe0700843e200080
:10116400050020006033b800adfd07000000be009c
:101174009d0007000080fa00000006000000fa004d
:101184002082200090407800808020001040780069
:1011940080cf50002f003a00308220009040780029
:1011a400908020001040780080cf500029003a0041
:1011b40075ff0700208220008040eb000148780082
:1011c400308220008040eb000148780004c8bf0052
:1011d4000080fb00e10f50000d003200e20f5000d0
:1011e400140032000000e0001a003a008080200061
:1011f40021c0b30001487800908020008040eb00bb
:101204000148780010c0b30004e8b70011003700ab
:101214008080200071c0b3000148780090802000d5
:1012240071c0b3000148780020c0b30004e8b700df
:10123400080037008080200041c0b30001487800d6
:101244009080200041c0b300014878000468ef009a
:10125400000000000080fa00000006000000fa0010
:101264000080eb00601988000080eb000016880005
:10127400c822ef000080eb006016880005e1a90099
:101284000421a9002108800000032000010070004f
:10129400200888000021ef00803821001008880011
:1012a40005e1a80011e1a9001021a900810880002e
:1012b4000003200001007000800888000621ef0070
:1012c400409c20006008880011e1a8008040eb00e9
:1012d4000040eb00eafe070011c0b30010c0b300e9
:1012e400e7fe070021c0b30020c0b300e4fe0700fe
:1012f40031c0b30040c0b300e1fe07002004800009
:10130400680060000000e0000c0032008460a90066
:1013140006c8bf0000c0ea0006e8b700004080002d
:101324000000e8000040880001408000703821007f
:10133400808f5000010036000028ef002104800057
:1013440000082000008060000000e0000c00320073
:1013540084e0a90007c8bf0000c0ea0007e8b7009e
:10136400104080000000e800104088001140800018
:10137400309c2000808f5000010036000228ef00ce
:0c1384007eff0700dafd0700d0ff3700f5
:020000040000fa
:10139000080800001a000000020000000404000019
:1013a0003c00420042003c0000027e00405e4200e1
:1013b0004a7a0200005b48007e10d20076040000ea
:1013c00022080000020000000000000000080000e9
:1013d00006000000000000000608000002000000f7
:0c13e00002000000ffff00000000000001
:020000040000fa
:1013ec00f03fb1000180b10006003500ee030900aa
:1013fc0000000000403fb1000180b100fbff3d0048
:10140c001000b000203fb000020035000080090041
:08141c000000000000000600c2
:00000001FF
